{
  "address": "0x91653Ff8fAEa049Fe2dE791a1Da0e11468E53Cd7",
  "abi": [
    {
      "inputs": [],
      "name": "BalanceMismatch",
      "type": "error"
    },
    {
      "inputs": [],
      "name": "InsufficientBalance",
      "type": "error"
    },
    {
      "inputs": [],
      "name": "InvalidLength",
      "type": "error"
    },
    {
      "inputs": [],
      "name": "TransferFailed",
      "type": "error"
    },
    {
      "inputs": [],
      "name": "UnequalTransferAmount",
      "type": "error"
    },
    {
      "inputs": [],
      "name": "ZeroAddress",
      "type": "error"
    },
    {
      "anonymous": false,
      "inputs": [
        {
          "indexed": false,
          "internalType": "uint8",
          "name": "version",
          "type": "uint8"
        }
      ],
      "name": "Initialized",
      "type": "event"
    },
    {
      "anonymous": false,
      "inputs": [
        {
          "indexed": true,
          "internalType": "address",
          "name": "previousOwner",
          "type": "address"
        },
        {
          "indexed": true,
          "internalType": "address",
          "name": "newOwner",
          "type": "address"
        }
      ],
      "name": "OwnershipTransferred",
      "type": "event"
    },
    {
      "anonymous": false,
      "inputs": [
        {
          "indexed": false,
          "internalType": "address",
          "name": "token",
          "type": "address"
        },
        {
          "indexed": false,
          "internalType": "address",
          "name": "recipient",
          "type": "address"
        },
        {
          "indexed": false,
          "internalType": "uint256",
          "name": "amount",
          "type": "uint256"
        }
      ],
      "name": "RescueERC20",
      "type": "event"
    },
    {
      "anonymous": false,
      "inputs": [
        {
          "indexed": false,
          "internalType": "address",
          "name": "token",
          "type": "address"
        },
        {
          "indexed": false,
          "internalType": "address[]",
          "name": "recipients",
          "type": "address[]"
        },
        {
          "indexed": false,
          "internalType": "uint256[]",
          "name": "amounts",
          "type": "uint256[]"
        }
      ],
      "name": "SendERC20",
      "type": "event"
    },
    {
      "anonymous": false,
      "inputs": [
        {
          "indexed": false,
          "internalType": "address[]",
          "name": "recipients",
          "type": "address[]"
        },
        {
          "indexed": false,
          "internalType": "uint256[]",
          "name": "amounts",
          "type": "uint256[]"
        }
      ],
      "name": "SendETH",
      "type": "event"
    },
    {
      "inputs": [],
      "name": "initialize",
      "outputs": [],
      "stateMutability": "nonpayable",
      "type": "function"
    },
    {
      "inputs": [],
      "name": "owner",
      "outputs": [
        {
          "internalType": "address",
          "name": "",
          "type": "address"
        }
      ],
      "stateMutability": "view",
      "type": "function"
    },
    {
      "inputs": [],
      "name": "renounceOwnership",
      "outputs": [],
      "stateMutability": "nonpayable",
      "type": "function"
    },
    {
      "inputs": [
        {
          "internalType": "address",
          "name": "_token",
          "type": "address"
        },
        {
          "internalType": "address",
          "name": "_recipient",
          "type": "address"
        },
        {
          "internalType": "uint256",
          "name": "_amount",
          "type": "uint256"
        }
      ],
      "name": "rescueERC20",
      "outputs": [],
      "stateMutability": "nonpayable",
      "type": "function"
    },
    {
      "inputs": [
        {
          "internalType": "address",
          "name": "_tokenAddress",
          "type": "address"
        },
        {
          "internalType": "address[]",
          "name": "_recipients",
          "type": "address[]"
        },
        {
          "internalType": "uint256[]",
          "name": "_amounts",
          "type": "uint256[]"
        }
      ],
      "name": "sendERC20",
      "outputs": [],
      "stateMutability": "nonpayable",
      "type": "function"
    },
    {
      "inputs": [
        {
          "internalType": "address[]",
          "name": "_recipients",
          "type": "address[]"
        },
        {
          "internalType": "uint256[]",
          "name": "_amounts",
          "type": "uint256[]"
        }
      ],
      "name": "sendETH",
      "outputs": [],
      "stateMutability": "payable",
      "type": "function"
    },
    {
      "inputs": [
        {
          "internalType": "address",
          "name": "newOwner",
          "type": "address"
        }
      ],
      "name": "transferOwnership",
      "outputs": [],
      "stateMutability": "nonpayable",
      "type": "function"
    }
  ],
  "transactionHash": "0xcf0a1d8c4fd38296c3b3855c06e55c1c3a60d1c771771024d33d88496c09ef7a",
  "args": [],
  "numDeployments": 1,
  "solcInputHash": "1a4dbe38c4ff4a0d0a1a3dc333af7a6b",
  "bytecode": "0x608060405234801561001057600080fd5b506110f0806100206000396000f3fe6080604052600436106100705760003560e01c8063b2118a8d1161004e578063b2118a8d146100cd578063cb393465146100ed578063e096e66a14610100578063f2fde38b1461012057600080fd5b8063715018a6146100755780638129fc1c1461008c5780638da5cb5b146100a1575b600080fd5b34801561008157600080fd5b5061008a610140565b005b34801561009857600080fd5b5061008a610154565b3480156100ad57600080fd5b50606554604080516001600160a01b039092168252519081900360200190f35b3480156100d957600080fd5b5061008a6100e8366004610cee565b610272565b61008a6100fb366004610d76565b610370565b34801561010c57600080fd5b5061008a61011b366004610de2565b6105cb565b34801561012c57600080fd5b5061008a61013b366004610e63565b610797565b61014861080d565b6101526000610867565b565b600054610100900460ff16158080156101745750600054600160ff909116105b8061018e5750303b15801561018e575060005460ff166001145b6101f65760405162461bcd60e51b815260206004820152602e60248201527f496e697469616c697a61626c653a20636f6e747261637420697320616c72656160448201526d191e481a5b9a5d1a585b1a5e995960921b60648201526084015b60405180910390fd5b6000805460ff191660011790558015610219576000805461ff0019166101001790555b6102216108b9565b6102296108e8565b801561026f576000805461ff0019169055604051600181527f7f26b83ff96e1f2b6a682f133852f6798a09c465da95921460cefb38474024989060200160405180910390a15b50565b61027a61080d565b6040516370a0823160e01b815230600482015283906000906001600160a01b038316906370a0823190602401602060405180830381865afa1580156102c3573d6000803e3d6000fd5b505050506040513d601f19601f820116820180604052508101906102e79190610e85565b90508281101561030a57604051631e9acf1760e31b815260040160405180910390fd5b61031e6001600160a01b0383168585610917565b604080516001600160a01b038088168252861660208201529081018490527f9b793652de97f04c5168920587bad4b1c6345295a8f5ad31c59ff946a26f91d29060600160405180910390a15050505050565b61037861097f565b8281146103985760405163251f56a160e21b815260040160405180910390fd5b6000805b828110156103d2578383828181106103b6576103b6610e9e565b90506020020135826103c89190610eca565b915060010161039c565b50806000036103f457604051631e9acf1760e31b815260040160405180910390fd5b80341461041457604051631e4c618b60e11b815260040160405180910390fd5b60006104203447610ee3565b905060005b8581101561055a5784848281811061043f5761043f610e9e565b905060200201356000031561055257600087878381811061046257610462610e9e565b90506020020160208101906104779190610e63565b6001600160a01b03160361049e5760405163d92e233d60e01b815260040160405180910390fd5b60008787838181106104b2576104b2610e9e565b90506020020160208101906104c79190610e63565b6001600160a01b03168686848181106104e2576104e2610e9e565b9050602002013560405160006040518083038185875af1925050503d8060008114610529576040519150601f19603f3d011682016040523d82523d6000602084013e61052e565b606091505b5050905080610550576040516312171d8360e31b815260040160405180910390fd5b505b600101610425565b504781811461057c57604051631947c14d60e31b815260040160405180910390fd5b7f7955b55233ed231ffeb45f0f7898bf6aef85960a615338fc442db041a6e19347878787876040516105b19493929190610f6f565b60405180910390a15050506105c560018055565b50505050565b6105d361097f565b8281146105f35760405163251f56a160e21b815260040160405180910390fd5b6000805b8281101561062d5783838281811061061157610611610e9e565b90506020020135826106239190610eca565b91506001016105f7565b508060000361064f57604051631e9acf1760e31b815260040160405180910390fd5b856106656001600160a01b0382163330856109de565b60005b8581101561074557600087878381811061068457610684610e9e565b90506020020160208101906106999190610e63565b6001600160a01b0316036106c05760405163d92e233d60e01b815260040160405180910390fd5b8484828181106106d2576106d2610e9e565b905060200201356000031561073d5761073d8787838181106106f6576106f6610e9e565b905060200201602081019061070b9190610e63565b86868481811061071d5761071d610e9e565b90506020020135846001600160a01b03166109179092919063ffffffff16565b600101610668565b507f45598155ad22f89d6c73cfdd9ef2389ddfe0c230a1126abf834437c64f8c8999878787878760405161077d959493929190610f96565b60405180910390a1505061079060018055565b5050505050565b61079f61080d565b6001600160a01b0381166108045760405162461bcd60e51b815260206004820152602660248201527f4f776e61626c653a206e6577206f776e657220697320746865207a65726f206160448201526564647265737360d01b60648201526084016101ed565b61026f81610867565b6065546001600160a01b031633146101525760405162461bcd60e51b815260206004820181905260248201527f4f776e61626c653a2063616c6c6572206973206e6f7420746865206f776e657260448201526064016101ed565b606580546001600160a01b038381166001600160a01b0319831681179093556040519116919082907f8be0079c531659141344cd1fd0a4f28419497f9722a3daafe3b4186f6b6457e090600090a35050565b600054610100900460ff166108e05760405162461bcd60e51b81526004016101ed90610fda565b610152610a16565b600054610100900460ff1661090f5760405162461bcd60e51b81526004016101ed90610fda565b610152610a3d565b6040516001600160a01b03831660248201526044810182905261097a90849063a9059cbb60e01b906064015b60408051601f198184030181529190526020810180516001600160e01b03166001600160e01b031990931692909217909152610a6d565b505050565b6002600154036109d15760405162461bcd60e51b815260206004820152601f60248201527f5265656e7472616e637947756172643a207265656e7472616e742063616c6c0060448201526064016101ed565b6002600155565b60018055565b6040516001600160a01b03808516602483015283166044820152606481018290526105c59085906323b872dd60e01b90608401610943565b600054610100900460ff166109d85760405162461bcd60e51b81526004016101ed90610fda565b600054610100900460ff16610a645760405162461bcd60e51b81526004016101ed90610fda565b61015233610867565b6000610ac2826040518060400160405280602081526020017f5361666545524332303a206c6f772d6c6576656c2063616c6c206661696c6564815250856001600160a01b0316610b429092919063ffffffff16565b9050805160001480610ae3575080806020019051810190610ae39190611025565b61097a5760405162461bcd60e51b815260206004820152602a60248201527f5361666545524332303a204552433230206f7065726174696f6e20646964206e6044820152691bdd081cdd58d8d9595960b21b60648201526084016101ed565b6060610b518484600085610b59565b949350505050565b606082471015610bba5760405162461bcd60e51b815260206004820152602660248201527f416464726573733a20696e73756666696369656e742062616c616e636520666f6044820152651c8818d85b1b60d21b60648201526084016101ed565b600080866001600160a01b03168587604051610bd6919061106b565b60006040518083038185875af1925050503d8060008114610c13576040519150601f19603f3d011682016040523d82523d6000602084013e610c18565b606091505b5091509150610c2987838387610c34565b979650505050505050565b60608315610ca3578251600003610c9c576001600160a01b0385163b610c9c5760405162461bcd60e51b815260206004820152601d60248201527f416464726573733a2063616c6c20746f206e6f6e2d636f6e747261637400000060448201526064016101ed565b5081610b51565b610b518383815115610cb85781518083602001fd5b8060405162461bcd60e51b81526004016101ed9190611087565b80356001600160a01b0381168114610ce957600080fd5b919050565b600080600060608486031215610d0357600080fd5b610d0c84610cd2565b9250610d1a60208501610cd2565b9150604084013590509250925092565b60008083601f840112610d3c57600080fd5b50813567ffffffffffffffff811115610d5457600080fd5b6020830191508360208260051b8501011115610d6f57600080fd5b9250929050565b60008060008060408587031215610d8c57600080fd5b843567ffffffffffffffff80821115610da457600080fd5b610db088838901610d2a565b90965094506020870135915080821115610dc957600080fd5b50610dd687828801610d2a565b95989497509550505050565b600080600080600060608688031215610dfa57600080fd5b610e0386610cd2565b9450602086013567ffffffffffffffff80821115610e2057600080fd5b610e2c89838a01610d2a565b90965094506040880135915080821115610e4557600080fd5b50610e5288828901610d2a565b969995985093965092949392505050565b600060208284031215610e7557600080fd5b610e7e82610cd2565b9392505050565b600060208284031215610e9757600080fd5b5051919050565b634e487b7160e01b600052603260045260246000fd5b634e487b7160e01b600052601160045260246000fd5b80820180821115610edd57610edd610eb4565b92915050565b81810381811115610edd57610edd610eb4565b8183526000602080850194508260005b85811015610f32576001600160a01b03610f1f83610cd2565b1687529582019590820190600101610f06565b509495945050505050565b81835260006001600160fb1b03831115610f5657600080fd5b8260051b80836020870137939093016020019392505050565b604081526000610f83604083018688610ef6565b8281036020840152610c29818587610f3d565b6001600160a01b0386168152606060208201819052600090610fbb9083018688610ef6565b8281036040840152610fce818587610f3d565b98975050505050505050565b6020808252602b908201527f496e697469616c697a61626c653a20636f6e7472616374206973206e6f74206960408201526a6e697469616c697a696e6760a81b606082015260800190565b60006020828403121561103757600080fd5b81518015158114610e7e57600080fd5b60005b8381101561106257818101518382015260200161104a565b50506000910152565b6000825161107d818460208701611047565b9190910192915050565b60208152600082518060208401526110a6816040850160208701611047565b601f01601f1916919091016040019291505056fea2646970667358221220f7e5d11f707e57c173cecdf2c95a7e0ee2029ffa89e468486a982d9d9dcd025a64736f6c63430008180033",
  "devdoc": {
    "events": {
      "Initialized(uint8)": {
        "details": "Triggered when the contract has been initialized or reinitialized."
      }
    },
    "kind": "dev",
    "methods": {
      "owner()": {
        "details": "Returns the address of the current owner."
      },
      "renounceOwnership()": {
        "details": "Leaves the contract without owner. It will not be possible to call `onlyOwner` functions. Can only be called by the current owner. NOTE: Renouncing ownership will leave the contract without an owner, thereby disabling any functionality that is only available to the owner."
      },
      "transferOwnership(address)": {
        "details": "Transfers ownership of the contract to a new account (`newOwner`). Can only be called by the current owner."
      }
    },
    "version": 1
  },
  "userdoc": {
    "kind": "user",
    "methods": {},
    "version": 1
  },
  "storageLayout": {
    "storage": [
      {
        "astId": 139,
        "contract": "contracts/MultiSender.sol:MultiSender",
        "label": "_initialized",
        "offset": 0,
        "slot": "0",
        "type": "t_uint8"
      },
      {
        "astId": 142,
        "contract": "contracts/MultiSender.sol:MultiSender",
        "label": "_initializing",
        "offset": 1,
        "slot": "0",
        "type": "t_bool"
      },
      {
        "astId": 316,
        "contract": "contracts/MultiSender.sol:MultiSender",
        "label": "_status",
        "offset": 0,
        "slot": "1",
        "type": "t_uint256"
      },
      {
        "astId": 385,
        "contract": "contracts/MultiSender.sol:MultiSender",
        "label": "__gap",
        "offset": 0,
        "slot": "2",
        "type": "t_array(t_uint256)49_storage"
      },
      {
        "astId": 1256,
        "contract": "contracts/MultiSender.sol:MultiSender",
        "label": "__gap",
        "offset": 0,
        "slot": "51",
        "type": "t_array(t_uint256)50_storage"
      },
      {
        "astId": 11,
        "contract": "contracts/MultiSender.sol:MultiSender",
        "label": "_owner",
        "offset": 0,
        "slot": "101",
        "type": "t_address"
      },
      {
        "astId": 131,
        "contract": "contracts/MultiSender.sol:MultiSender",
        "label": "__gap",
        "offset": 0,
        "slot": "102",
        "type": "t_array(t_uint256)49_storage"
      }
    ],
    "types": {
      "t_address": {
        "encoding": "inplace",
        "label": "address",
        "numberOfBytes": "20"
      },
      "t_array(t_uint256)49_storage": {
        "base": "t_uint256",
        "encoding": "inplace",
        "label": "uint256[49]",
        "numberOfBytes": "1568"
      },
      "t_array(t_uint256)50_storage": {
        "base": "t_uint256",
        "encoding": "inplace",
        "label": "uint256[50]",
        "numberOfBytes": "1600"
      },
      "t_bool": {
        "encoding": "inplace",
        "label": "bool",
        "numberOfBytes": "1"
      },
      "t_uint256": {
        "encoding": "inplace",
        "label": "uint256",
        "numberOfBytes": "32"
      },
      "t_uint8": {
        "encoding": "inplace",
        "label": "uint8",
        "numberOfBytes": "1"
      }
    }
  }
}