{
  "address": "0xC8f86a5Bf73A1AAB3bdd86d9F6BCb44BF9C92BF9",
  "abi": [
    {
      "anonymous": false,
      "inputs": [
        {
          "indexed": false,
          "internalType": "uint8",
          "name": "version",
          "type": "uint8"
        }
      ],
      "name": "Initialized",
      "type": "event"
    },
    {
      "anonymous": false,
      "inputs": [
        {
          "indexed": false,
          "internalType": "address",
          "name": "token",
          "type": "address"
        },
        {
          "indexed": false,
          "internalType": "address[]",
          "name": "recipients",
          "type": "address[]"
        },
        {
          "indexed": false,
          "internalType": "uint256[]",
          "name": "amounts",
          "type": "uint256[]"
        }
      ],
      "name": "SendERC20",
      "type": "event"
    },
    {
      "anonymous": false,
      "inputs": [
        {
          "indexed": false,
          "internalType": "address[]",
          "name": "recipients",
          "type": "address[]"
        },
        {
          "indexed": false,
          "internalType": "uint256[]",
          "name": "amounts",
          "type": "uint256[]"
        }
      ],
      "name": "SendETH",
      "type": "event"
    },
    {
      "inputs": [],
      "name": "initialize",
      "outputs": [],
      "stateMutability": "nonpayable",
      "type": "function"
    },
    {
      "inputs": [
        {
          "internalType": "address",
          "name": "_tokenAddress",
          "type": "address"
        },
        {
          "internalType": "address[]",
          "name": "_recipients",
          "type": "address[]"
        },
        {
          "internalType": "uint256[]",
          "name": "_amounts",
          "type": "uint256[]"
        }
      ],
      "name": "sendERC20",
      "outputs": [],
      "stateMutability": "nonpayable",
      "type": "function"
    },
    {
      "inputs": [
        {
          "internalType": "address[]",
          "name": "_recipients",
          "type": "address[]"
        },
        {
          "internalType": "uint256[]",
          "name": "_amounts",
          "type": "uint256[]"
        }
      ],
      "name": "sendETH",
      "outputs": [],
      "stateMutability": "payable",
      "type": "function"
    }
  ],
  "transactionHash": "0x3549607516bf9d4989a8d9d49b4d83e65a04c59c0762980b2fc570864f1b096f",
  "args": [],
  "numDeployments": 1,
  "solcInputHash": "1f7a42ad904ff66200c8b4e89fc0f95d",
  "bytecode": "0x608060405234801561001057600080fd5b50611676806100206000396000f3fe6080604052600436106100345760003560e01c80638129fc1c14610039578063cb39346514610050578063e096e66a1461006c575b600080fd5b34801561004557600080fd5b5061004e610095565b005b61006a60048036038101906100659190610b9f565b6101d3565b005b34801561007857600080fd5b50610093600480360381019061008e9190610c7e565b6105ea565b005b60008060019054906101000a900460ff161590508080156100c65750600160008054906101000a900460ff1660ff16105b806100f357506100d5306109ae565b1580156100f25750600160008054906101000a900460ff1660ff16145b5b610132576040517f08c379a000000000000000000000000000000000000000000000000000000000815260040161012990610d96565b60405180910390fd5b60016000806101000a81548160ff021916908360ff160217905550801561016f576001600060016101000a81548160ff0219169083151502179055505b6101776109d1565b80156101d05760008060016101000a81548160ff0219169083151502179055507f7f26b83ff96e1f2b6a682f133852f6798a09c465da95921460cefb384740249860016040516101c79190610e08565b60405180910390a15b50565b6101db610a2a565b818190508484905014610223576040517f08c379a000000000000000000000000000000000000000000000000000000000815260040161021a90610e6f565b60405180910390fd5b6000805b838390508110156102665783838281811061024557610244610e8f565b5b90506020020135826102579190610ef7565b91508080600101915050610227565b50600081116102aa576040517f08c379a00000000000000000000000000000000000000000000000000000000081526004016102a190610f77565b60405180910390fd5b8034146102ec576040517f08c379a00000000000000000000000000000000000000000000000000000000081526004016102e390610fe3565b60405180910390fd5b60008034476102fb9190611003565b905060005b8787905081101561049c57600073ffffffffffffffffffffffffffffffffffffffff1688888381811061033657610335610e8f565b5b905060200201602081019061034b9190611037565b73ffffffffffffffffffffffffffffffffffffffff16036103925785858281811061037957610378610e8f565b5b905060200201358361038b9190610ef7565b925061048f565b60008686838181106103a7576103a6610e8f565b5b90506020020135031561048f5760008888838181106103c9576103c8610e8f565b5b90506020020160208101906103de9190611037565b73ffffffffffffffffffffffffffffffffffffffff1687878481811061040757610406610e8f565b5b9050602002013560405161041a90611095565b60006040518083038185875af1925050503d8060008114610457576040519150601f19603f3d011682016040523d82523d6000602084013e61045c565b606091505b505090508061048d5786868381811061047857610477610e8f565b5b905060200201358461048a9190610ef7565b93505b505b8080600101915050610300565b5060008211156105545760003373ffffffffffffffffffffffffffffffffffffffff16836040516104cc90611095565b60006040518083038185875af1925050503d8060008114610509576040519150601f19603f3d011682016040523d82523d6000602084013e61050e565b606091505b5050905080610552576040517f08c379a0000000000000000000000000000000000000000000000000000000008152600401610549906110f6565b60405180910390fd5b505b600047905081811461059b576040517f08c379a000000000000000000000000000000000000000000000000000000000815260040161059290611162565b60405180910390fd5b7f7955b55233ed231ffeb45f0f7898bf6aef85960a615338fc442db041a6e19347888888886040516105d094939291906112c0565b60405180910390a1505050506105e4610a79565b50505050565b6105f2610a2a565b81819050848490501461063a576040517f08c379a000000000000000000000000000000000000000000000000000000000815260040161063190610e6f565b60405180910390fd5b6000805b8383905081101561067d5783838281811061065c5761065b610e8f565b5b905060200201358261066e9190610ef7565b9150808060010191505061063e565b50600081116106c1576040517f08c379a00000000000000000000000000000000000000000000000000000000081526004016106b890610f77565b60405180910390fd5b6000869050818173ffffffffffffffffffffffffffffffffffffffff166370a08231336040518263ffffffff1660e01b8152600401610700919061130a565b602060405180830381865afa15801561071d573d6000803e3d6000fd5b505050506040513d601f19601f820116820180604052508101906107419190611351565b1015610782576040517f08c379a0000000000000000000000000000000000000000000000000000000008152600401610779906113ca565b60405180910390fd5b60005b868690508110156108dd57600073ffffffffffffffffffffffffffffffffffffffff168787838181106107bb576107ba610e8f565b5b90506020020160208101906107d09190611037565b73ffffffffffffffffffffffffffffffffffffffff1603156108d057600085858381811061080157610800610e8f565b5b9050602002013503156108d0578173ffffffffffffffffffffffffffffffffffffffff166323b872dd3389898581811061083e5761083d610e8f565b5b90506020020160208101906108539190611037565b88888681811061086657610865610e8f565b5b905060200201356040518463ffffffff1660e01b815260040161088b939291906113f9565b6020604051808303816000875af11580156108aa573d6000803e3d6000fd5b505050506040513d601f19601f820116820180604052508101906108ce9190611468565b505b8080600101915050610785565b508073ffffffffffffffffffffffffffffffffffffffff1663095ea7b33060006040518363ffffffff1660e01b815260040161091a9291906114d0565b6020604051808303816000875af1158015610939573d6000803e3d6000fd5b505050506040513d601f19601f8201168201806040525081019061095d9190611468565b507f45598155ad22f89d6c73cfdd9ef2389ddfe0c230a1126abf834437c64f8c899987878787876040516109959594939291906114f9565b60405180910390a150506109a7610a79565b5050505050565b6000808273ffffffffffffffffffffffffffffffffffffffff163b119050919050565b600060019054906101000a900460ff16610a20576040517f08c379a0000000000000000000000000000000000000000000000000000000008152600401610a17906115b4565b60405180910390fd5b610a28610a82565b565b600260015403610a6f576040517f08c379a0000000000000000000000000000000000000000000000000000000008152600401610a6690611620565b60405180910390fd5b6002600181905550565b60018081905550565b600060019054906101000a900460ff16610ad1576040517f08c379a0000000000000000000000000000000000000000000000000000000008152600401610ac8906115b4565b60405180910390fd5b60018081905550565b600080fd5b600080fd5b600080fd5b600080fd5b600080fd5b60008083601f840112610b0957610b08610ae4565b5b8235905067ffffffffffffffff811115610b2657610b25610ae9565b5b602083019150836020820283011115610b4257610b41610aee565b5b9250929050565b60008083601f840112610b5f57610b5e610ae4565b5b8235905067ffffffffffffffff811115610b7c57610b7b610ae9565b5b602083019150836020820283011115610b9857610b97610aee565b5b9250929050565b60008060008060408587031215610bb957610bb8610ada565b5b600085013567ffffffffffffffff811115610bd757610bd6610adf565b5b610be387828801610af3565b9450945050602085013567ffffffffffffffff811115610c0657610c05610adf565b5b610c1287828801610b49565b925092505092959194509250565b600073ffffffffffffffffffffffffffffffffffffffff82169050919050565b6000610c4b82610c20565b9050919050565b610c5b81610c40565b8114610c6657600080fd5b50565b600081359050610c7881610c52565b92915050565b600080600080600060608688031215610c9a57610c99610ada565b5b6000610ca888828901610c69565b955050602086013567ffffffffffffffff811115610cc957610cc8610adf565b5b610cd588828901610af3565b9450945050604086013567ffffffffffffffff811115610cf857610cf7610adf565b5b610d0488828901610b49565b92509250509295509295909350565b600082825260208201905092915050565b7f496e697469616c697a61626c653a20636f6e747261637420697320616c72656160008201527f647920696e697469616c697a6564000000000000000000000000000000000000602082015250565b6000610d80602e83610d13565b9150610d8b82610d24565b604082019050919050565b60006020820190508181036000830152610daf81610d73565b9050919050565b6000819050919050565b600060ff82169050919050565b6000819050919050565b6000610df2610ded610de884610db6565b610dcd565b610dc0565b9050919050565b610e0281610dd7565b82525050565b6000602082019050610e1d6000830184610df9565b92915050565b7f4d7573742068617665207468652073616d65206c656e67746800000000000000600082015250565b6000610e59601983610d13565b9150610e6482610e23565b602082019050919050565b60006020820190508181036000830152610e8881610e4c565b9050919050565b7f4e487b7100000000000000000000000000000000000000000000000000000000600052603260045260246000fd5b6000819050919050565b7f4e487b7100000000000000000000000000000000000000000000000000000000600052601160045260246000fd5b6000610f0282610ebe565b9150610f0d83610ebe565b9250828201905080821115610f2557610f24610ec8565b5b92915050565b7f546f74616c207472616e7366657220616d6f756e74206973207a65726f000000600082015250565b6000610f61601d83610d13565b9150610f6c82610f2b565b602082019050919050565b60006020820190508181036000830152610f9081610f54565b9050919050565b7f556e657175616c207472616e7366657220616d6f756e74000000000000000000600082015250565b6000610fcd601783610d13565b9150610fd882610f97565b602082019050919050565b60006020820190508181036000830152610ffc81610fc0565b9050919050565b600061100e82610ebe565b915061101983610ebe565b925082820390508181111561103157611030610ec8565b5b92915050565b60006020828403121561104d5761104c610ada565b5b600061105b84828501610c69565b91505092915050565b600081905092915050565b50565b600061107f600083611064565b915061108a8261106f565b600082019050919050565b60006110a082611072565b9150819050919050565b7f526566756e64206661696c656400000000000000000000000000000000000000600082015250565b60006110e0600d83610d13565b91506110eb826110aa565b602082019050919050565b6000602082019050818103600083015261110f816110d3565b9050919050565b7f42616c616e6365206d69736d61746368206166746572207472616e7366657273600082015250565b600061114c602083610d13565b915061115782611116565b602082019050919050565b6000602082019050818103600083015261117b8161113f565b9050919050565b600082825260208201905092915050565b6000819050919050565b6111a681610c40565b82525050565b60006111b8838361119d565b60208301905092915050565b60006111d36020840184610c69565b905092915050565b6000602082019050919050565b60006111f48385611182565b93506111ff82611193565b8060005b858110156112385761121582846111c4565b61121f88826111ac565b975061122a836111db565b925050600181019050611203565b5085925050509392505050565b600082825260208201905092915050565b600080fd5b82818337505050565b60006112708385611245565b93507f07ffffffffffffffffffffffffffffffffffffffffffffffffffffffffffffff8311156112a3576112a2611256565b5b6020830292506112b483858461125b565b82840190509392505050565b600060408201905081810360008301526112db8186886111e8565b905081810360208301526112f0818486611264565b905095945050505050565b61130481610c40565b82525050565b600060208201905061131f60008301846112fb565b92915050565b61132e81610ebe565b811461133957600080fd5b50565b60008151905061134b81611325565b92915050565b60006020828403121561136757611366610ada565b5b60006113758482850161133c565b91505092915050565b7f4e6f7420656e6f75676820746f6b656e73000000000000000000000000000000600082015250565b60006113b4601183610d13565b91506113bf8261137e565b602082019050919050565b600060208201905081810360008301526113e3816113a7565b9050919050565b6113f381610ebe565b82525050565b600060608201905061140e60008301866112fb565b61141b60208301856112fb565b61142860408301846113ea565b949350505050565b60008115159050919050565b61144581611430565b811461145057600080fd5b50565b6000815190506114628161143c565b92915050565b60006020828403121561147e5761147d610ada565b5b600061148c84828501611453565b91505092915050565b6000819050919050565b60006114ba6114b56114b084611495565b610dcd565b610ebe565b9050919050565b6114ca8161149f565b82525050565b60006040820190506114e560008301856112fb565b6114f260208301846114c1565b9392505050565b600060608201905061150e60008301886112fb565b81810360208301526115218186886111e8565b90508181036040830152611536818486611264565b90509695505050505050565b7f496e697469616c697a61626c653a20636f6e7472616374206973206e6f74206960008201527f6e697469616c697a696e67000000000000000000000000000000000000000000602082015250565b600061159e602b83610d13565b91506115a982611542565b604082019050919050565b600060208201905081810360008301526115cd81611591565b9050919050565b7f5265656e7472616e637947756172643a207265656e7472616e742063616c6c00600082015250565b600061160a601f83610d13565b9150611615826115d4565b602082019050919050565b60006020820190508181036000830152611639816115fd565b905091905056fea264697066735822122033c70961d02173fb3f2d16752f3d0a621958b9e195187d824d3cd6c7940d309064736f6c63430008180033",
  "devdoc": {
    "events": {
      "Initialized(uint8)": {
        "details": "Triggered when the contract has been initialized or reinitialized."
      }
    },
    "kind": "dev",
    "methods": {},
    "version": 1
  },
  "userdoc": {
    "kind": "user",
    "methods": {},
    "version": 1
  },
  "storageLayout": {
    "storage": [
      {
        "astId": 6,
        "contract": "contracts/MultiSender.sol:MultiSender",
        "label": "_initialized",
        "offset": 0,
        "slot": "0",
        "type": "t_uint8"
      },
      {
        "astId": 9,
        "contract": "contracts/MultiSender.sol:MultiSender",
        "label": "_initializing",
        "offset": 1,
        "slot": "0",
        "type": "t_bool"
      },
      {
        "astId": 183,
        "contract": "contracts/MultiSender.sol:MultiSender",
        "label": "_status",
        "offset": 0,
        "slot": "1",
        "type": "t_uint256"
      },
      {
        "astId": 252,
        "contract": "contracts/MultiSender.sol:MultiSender",
        "label": "__gap",
        "offset": 0,
        "slot": "2",
        "type": "t_array(t_uint256)49_storage"
      }
    ],
    "types": {
      "t_array(t_uint256)49_storage": {
        "base": "t_uint256",
        "encoding": "inplace",
        "label": "uint256[49]",
        "numberOfBytes": "1568"
      },
      "t_bool": {
        "encoding": "inplace",
        "label": "bool",
        "numberOfBytes": "1"
      },
      "t_uint256": {
        "encoding": "inplace",
        "label": "uint256",
        "numberOfBytes": "32"
      },
      "t_uint8": {
        "encoding": "inplace",
        "label": "uint8",
        "numberOfBytes": "1"
      }
    }
  }
}